{
  "_format": "hh-sol-artifact-1",
  "contractName": "PaymentSplitter",
  "sourceName": "contracts/PaymentSplitter.sol",
  "abi": [
    {
      "inputs": [
        {
          "internalType": "address payable",
          "name": "_client",
          "type": "address"
        },
        {
          "internalType": "uint256",
          "name": "_feePercent",
          "type": "uint256"
        }
      ],
      "stateMutability": "nonpayable",
      "type": "constructor"
    },
    {
      "anonymous": false,
      "inputs": [
        {
          "indexed": true,
          "internalType": "address",
          "name": "from",
          "type": "address"
        },
        {
          "indexed": false,
          "internalType": "uint256",
          "name": "amount",
          "type": "uint256"
        },
        {
          "indexed": false,
          "internalType": "uint256",
          "name": "fee",
          "type": "uint256"
        },
        {
          "indexed": false,
          "internalType": "uint256",
          "name": "clientAmount",
          "type": "uint256"
        }
      ],
      "name": "PaymentReceived",
      "type": "event"
    },
    {
      "inputs": [],
      "name": "client",
      "outputs": [
        {
          "internalType": "address payable",
          "name": "",
          "type": "address"
        }
      ],
      "stateMutability": "view",
      "type": "function"
    },
    {
      "inputs": [],
      "name": "feePercent",
      "outputs": [
        {
          "internalType": "uint256",
          "name": "",
          "type": "uint256"
        }
      ],
      "stateMutability": "view",
      "type": "function"
    },
    {
      "inputs": [],
      "name": "owner",
      "outputs": [
        {
          "internalType": "address payable",
          "name": "",
          "type": "address"
        }
      ],
      "stateMutability": "view",
      "type": "function"
    },
    {
      "stateMutability": "payable",
      "type": "receive"
    }
  ],
  "bytecode": "0x608060405234801561001057600080fd5b506040516106d13803806106d18339818101604052810190610032919061019e565b6064811115610076576040517f08c379a000000000000000000000000000000000000000000000000000000000815260040161006d9061023b565b60405180910390fd5b336000806101000a81548173ffffffffffffffffffffffffffffffffffffffff021916908373ffffffffffffffffffffffffffffffffffffffff16021790555081600160006101000a81548173ffffffffffffffffffffffffffffffffffffffff021916908373ffffffffffffffffffffffffffffffffffffffff16021790555080600281905550505061025b565b600080fd5b600073ffffffffffffffffffffffffffffffffffffffff82169050919050565b60006101358261010a565b9050919050565b6101458161012a565b811461015057600080fd5b50565b6000815190506101628161013c565b92915050565b6000819050919050565b61017b81610168565b811461018657600080fd5b50565b60008151905061019881610172565b92915050565b600080604083850312156101b5576101b4610105565b5b60006101c385828601610153565b92505060206101d485828601610189565b9150509250929050565b600082825260208201905092915050565b7f4665652063616e6e6f74206265206d6f7265207468616e203130300000000000600082015250565b6000610225601b836101de565b9150610230826101ef565b602082019050919050565b6000602082019050818103600083015261025481610218565b9050919050565b6104678061026a6000396000f3fe6080604052600436106100385760003560e01c8063109e94cf146101945780637fd6f15c146101bf5780638da5cb5b146101ea5761018f565b3661018f57600060646002543461004f919061029e565b610059919061030f565b9050600081346100699190610340565b905060008054906101000a900473ffffffffffffffffffffffffffffffffffffffff1673ffffffffffffffffffffffffffffffffffffffff166108fc839081150290604051600060405180830381858888f193505050501580156100d1573d6000803e3d6000fd5b50600160009054906101000a900473ffffffffffffffffffffffffffffffffffffffff1673ffffffffffffffffffffffffffffffffffffffff166108fc829081150290604051600060405180830381858888f1935050505015801561013a573d6000803e3d6000fd5b503373ffffffffffffffffffffffffffffffffffffffff167f750e6bbedd4312ada35caa75e07fc0b85f1a6fc9c675e6962aef84691871109734848460405161018593929190610383565b60405180910390a2005b600080fd5b3480156101a057600080fd5b506101a9610215565b6040516101b691906103fb565b60405180910390f35b3480156101cb57600080fd5b506101d461023b565b6040516101e19190610416565b60405180910390f35b3480156101f657600080fd5b506101ff610241565b60405161020c91906103fb565b60405180910390f35b600160009054906101000a900473ffffffffffffffffffffffffffffffffffffffff1681565b60025481565b60008054906101000a900473ffffffffffffffffffffffffffffffffffffffff1681565b6000819050919050565b7f4e487b7100000000000000000000000000000000000000000000000000000000600052601160045260246000fd5b60006102a982610265565b91506102b483610265565b92508282026102c281610265565b915082820484148315176102d9576102d861026f565b5b5092915050565b7f4e487b7100000000000000000000000000000000000000000000000000000000600052601260045260246000fd5b600061031a82610265565b915061032583610265565b925082610335576103346102e0565b5b828204905092915050565b600061034b82610265565b915061035683610265565b925082820390508181111561036e5761036d61026f565b5b92915050565b61037d81610265565b82525050565b60006060820190506103986000830186610374565b6103a56020830185610374565b6103b26040830184610374565b949350505050565b600073ffffffffffffffffffffffffffffffffffffffff82169050919050565b60006103e5826103ba565b9050919050565b6103f5816103da565b82525050565b600060208201905061041060008301846103ec565b92915050565b600060208201905061042b6000830184610374565b9291505056fea2646970667358221220f3d8b44064486b30302c4c82ad6edeb4d5f3c0716e333aed021aed32ccc7a28264736f6c63430008180033",
  "linkReferences": {},
  "deployedLinkReferences": {}
}